:1018300000A8C00000065B4F666D7D077F6F3F1EEE
:0F1840006B75404876BF86DBCFE6EDFD87FFEF87
:100E5300040802000000011C00040C02000000044E
:0B0E6300140200000004180200000050
:10106000E4F534F535F53675370112194DEF607B2F
:10107000E51064027075E511B50910E512B50A0BAB
:10108000E513B50B06753400753501E5356401458A
:10109000347037F536753701AF3774102FF8E6FE28
:1010A000600674182FF8A6060537E5377002053676
:1010B0006404453670E2851A3BE4F53CF53DF53EA7
:1010C000851B3FFBFDAF19121810E4F536F537AF5D
:1010D0003774102FF8E6FE74082FF8A6060537E5DA
:0B10E00037700205366404453670E4EA
:0110EB0022E2
:101459007F041215B58F347F031215B58F357F01BF
:101469001215B58F36E534B4011A85190DE4F5194D
:101479007D0AFC7FA07E0F1212807480251CF51C4A
:10148900FF12193BE535B4011A851A0EE4F51A7DE8
:101499000AFC7FA07E0F1212807410251CF51CFF18
:1014A90012193BE536B40117851B0FE4F51B7D0ABC
:0F14B900FC7FA07E0F121280051CAF1C12193B86
:0114C8002201
:1013E500E4FF12163F8F347F0112163F8F35E53427
:1013F5006401703C7D0AFC7FA07E0F1212807B0089
:101405007A00790C7D041216BE850C14850D1585A0
:101415000E16850F17851A3BE4F53CF53DF53E851F
:101425001B3FFBFDAF19121810E4F50DF50EF50F76
:10143500E535B4011EE4F51CAF1C12193B7D0A7C91
:10144500007FA07E0F1212807B007A0079147D0444
:031455001216BEAE
:011458002271
:10136F0012184F1217F01218887F9812173B7F2B05
:10137F001218B4E4FF12193B7D327C007FA07E0F60
:10138F001212807D07E4FF121903753B02753C0EA4
:10139F00753D0E753E0E753F0E7B0E7D0E7F0E1248
:1013AF0018107B007A0079107D0412191E7BFF7ACA
:1013BF001079607F0B1212037BFF7A1379E57F049C
:1013CF001212037BFF7A1479597F07121203121935
:0613DF00411216FD80FB27
:0918FA008B88898C88898F88890C
:100E6E0052007A86860086860086860086860086F2
:090E7E00860086860041006F0920
:03002B0002193582
:0619350053BCEFD20F329B
:0209AE001548EA
:1009B000200F03020B57C20F90006EE0B4090040F5
:1009C00003020B399009CBF8282873020A12020996
:1009D000E60209F8020A240209E60209F8020A3BC3
:1009E0000209E60209F8AFBDEFFEADBE7C00E42DC2
:1009F000FFEC3E900070803CAFBDEFFEADBE7C00D2
:100A0000E42DFFEC3E900072F0A3EFF0751D0102A3
:100A10000B3FAFBDEFFEADBE7C00E42DFFEC3E9082
:100A200000748010AFBDEFFEADBE7C00E42DFFEC86
:100A30003E900076F0A3EFF0020B3FAFBDEFFEADAE
:100A4000BE7C00E42DFFEC3E900078F0A3EFF09028
:100A50000078E0FEA3E07807CEC313CE13D8F9A840
:100A600048F6C394065013A848E675F003A4247A08
:100A7000F582E43400F583E014F090006FE014F0A8
:100A80006003020B3F7409F0A848E4F6A848E6FFAB
:100A9000C394064003020B3FEF75F003A4247AF5DC
:100AA00082E43400F583E0C39480502AE6FF75F0B9
:100AB00003A4247BF582E43400F583E0D3948040E2
:100AC00040EF75F003A4247CF582E43400F58374D0
:100AD00001F0F51E802BA848E6FF75F003A4247BE7
:100AE000F582E43400F583E0C394805014EF75F090
:100AF00003A4247CF582E43400F5837402F0751EAF
:100B000001A848E6FF75F003A4247AF582E43400D6
:100B1000F583E0FEEF75F003A4247BF582E4340056
:100B2000F583EEF0E675F003A4247AF582E4340050
:100B3000F5837486F006020A8C90006E74FFF090C4
:100B4000006EE0D39407400374FFF090006EE00461
:070B5000F09018FA93F5BCC8
:030B57000548222C
:0218C4001548C5
:0918C600A848A61EE4F51EE6FF89
:0318CF00054822A7
:0218D2001548B7
:0918D400A848A61DE4F51DE6FF7D
:0318DD0005482299
:10173B008F9D75BC88439720D2AD90004574FFF008
:10174B00A37409F0A374AEF0A374FFF0A37418F0A4
:10175B00A374C4F0A374FFF0A37418F0A374D2F0B5
:01176B00225B
:071927007B017A00797022B8
:1015B500C3EF64809480403BD3EF648094855033BF
:1015C500EFFD3395E0FC90007C75F003ED12099C6E
:1015D500EC75F003A42583F583E0FE90007C75F09F
:1015E50003ED12099CEC75F003A42583F583E4F063
:0515F500AF06227F0398
:0115FA0022CE
:0417C8001548154863
:1017CC0012190CA848A60608A607A848E6FE08E6C3
:0F17DC00FF4E600BEF24FFFFEE34FFFE121915D6
:0517EB0005480548223D
:1017F00053B1EF43B21012194AE4F5D975DA49D260
:10180000DE90003F74FFF0A37417F0A374C8F022B9
:081280008E378F388C398D3A4E
:1012880012190CEF4E7066AF3AAE39121915C3E554
:1012980038940AE5379400404BE47B18FAF9F89043
:1012A80018301209801208DAC006C007AE37AF3806
:1012B800AB07AA06E4F9F8D007D0061208DAAB079C
:1012C800AA06AFF9EFFEADE97C00E42DFFEC3ECFB6
:1012D8002BCF3AAD07FCAF03AE021218A3D2D84306
:0F12E800DA01800612194A53DAFE7F02227F03D1
:0112F70022D4
:0C18EE0012190CEF4E7002FF227F012245
:100D6A00E4F580900097E0FFB40800505F900D7E94
:100D7A00F8282873020D96020D9C020DA2020DA8F6
:100D8A00020DAE020DB8020DC2020DCCC2A3C2A260
:100D9A008016C2A3C2A2801AC2A3C2A2801EC2A384
:100DAA00C2A28022C2A3D2A2C2A1C2A08020C2A390
:100DBA00D2A2C2A1D2A08016C2A3D2A2D2A1C2A09C
:100DCA00800CC2A3D2A2D2A1D2A08002D2A3C3EF26
:100DDA00648094885029900097E0FF3395E0FE7470
:100DEA008E2FF58274003EF583E0FF3395E0FE74A2
:100DFA00342FF58274183EF583E493F580801E90B3
:100E0A000097E0FFB408133395E0FE748E2FF58245
:100E1A0074003EF583E0F5808003E4F58090008D50
:100E2A00E0FF900097E004FEF0D3EF6480F8EE64F0
:100E3A0080984014E0D36480948850047408F022A7
:090E4A0090008CE0900097F0226A
:10188800E4F5937594FF5395F043960F90002A74EE
:0B189800FFF0A3740DF0A3746AF022AF
:0919030090008CEFF0A3EDF0223E
:1018100090008EEFF0A3EDF0A3EBF0A3E53BF0A377
:10182000E53CF0A3E53DF0A3E53EF0A3E53FF02263
:06193B00900096EFF0227F
:100E8700011F0049009994940094940094940041A0
:030E970000981EA2
:020B5A0015483C
:100B5C0020B206900099E014F020B30690009CE0BF
:100B6C0014F020970690009FE014F0900098E01489
:100B7C00F06003020C7A741EF0A848E4F6A848E66C
:100B8C00FFC3648094834003020C7AEF3395E0FE3C
:100B9C0090009975F003EF12099CEE75F003A425F3
:100BAC0083F583E0C39480503990009A75F003EF7D
:100BBC0012099CEE75F003A42583F583E0D3948091
:100BCC00405AE6FF3395E0FE90009B75F003EF1260
:100BDC00099CEE75F003A42583F5837401F0F51FD1
:100BEC00803AA848E6FF3395E0FE90009A75F00332
:100BFC00EF12099CEE75F003A42583F583E0C394F2
:100C0C0080501990009B75F003EF12099CEE75F063
:100C1C0003A42583F5837402F0751F01A848E6FF31
:100C2C00FD3395E0FC90009975F003ED12099CECF6
:100C3C0075F003A42583F583E0FE90009A75F0030C
:100C4C00ED12099CEC75F003A42583F583EEF0EF0F
:100C5C003395E0FE90009975F003EF12099CEE7548
:0E0C6C00F003A42583F5837494F006020B892F
:030C7A0005482208
:0218E0001548A9
:0918E200A848A61FE4F51FE6FF6B
:0318EB000548228B
:10184F0090003074FFF0A37418F0A374E0F09000D0
:0D185F002D74FFF0A3740BF0A3745AF02257
:10163F00EF600764016003BF0233EFFD3395E0FCF9
:10164F0090009B75F003ED12099CEC75F003A42537
:10165F0083F583E0FE90009B75F003ED12099CEC7F
:0F166F0075F003A42583F583E4F0AF06227F0313
:01167E002249
:100E9A004100000A4100290A41006D0A04280000A5
:100EAA000000012E004600670000FFFF8FFFC10D02
:100EBA00C105C108C101C10E60240005FF1950FF18
:100ECA001950FF1950FF1950FF1950FF1950FF19F7
:100EDA0050FF1950FF1950FF1950FF1950FF1950B0
:100EEA006036002AFF1950FF1950FF1947FF1950A1
:100EFA00FF1947FF1950FF1947FF1950FF1950FFF3
:100F0A001950FF1947FF1947FF1947FF1947FF19DA
:0A0F1A0050FF1950FF1950FF195045
:011950002274
:031947007F0022FC
:10156E00438E805389F07BE07A28790178009018B9
:10157E00301209801215FBEFF404F58A7BE07A280D
:10158E00790178009018301209801215FBC3E49F80
:10159E00FFE49EFE74019DFDE49CFC780812096C2C
:0715AE008F8CD28CD2A92220
:03000B0002151CBF
:04151C00C0E0C0D09B
:10152000D5220A75224C300D02052ED20DA203726F
:101530000450361524E5247030852624D207300A5D
:1015400017E52760071527438F01801D538FFEC2C3
:10155000B5D53015C20A80110525E525D39406407E
:0915600008C203E52D6002D20669
:05156900D0D0D0E032FB
:1014C900300E47C20E901830120980781012096C3C
:1014D9008E468F47900003E0FEA3E0FFE4FCFD7B0E
:1014E90019FAF9F812084FC006C007AE46AF47AB64
:1014F90007AA06E4F9F8D007D0061215FB780312FB
:10150900096C900065EEF0A3EFF0900065E0FEA392
:02151900E0FFF1
:01151B0022AD
:09190C00900067E0FEA3E0FF2259
:09191500900067EEF0A3EFF02250
:1018A30090006BEEF0A3EFF0900069ECF0A3EDF085
:0118B3002212
:03194A00C2B42202
:03003B00020F258C
:100F2500C0E0C083C082C0D075D000C004C005C079
:030F350006C007EC
:100F380030DF04C2DF807D30DA04C2DA807630D94F
:100F48003DC2D9AFFBEFFEADEB7C00E42DFFEC3EDC
:100F580020000E900001F0A3EFF075DB11D20080A5
:100F680053FE900001E0FCA3E0FDC3EF9DFFEE9C63
:100F7800A3F0A3EFF075DB00C200D20E803630D8A4
:100F880033C2D8900067E07002A3E06022B2B49048
:100F98000069E0FEA3E0F5EAEEF5FAA3E0FEA3E0BF
:100FA800FF90006AE02FF0900069E03EF08005C2F3
:040FB800B453DAFE56
:100FBC00D007D006D005D004D0D0D082D083D0E0DA
:010FCC0032F2
:0619410012156ED2AF2268
:101178003004047F0180027F00200A047E0180027F
:101188007E00EE5F6074E52FC39523506830023609
:10119800752701E52F131313541FAB31AA32A93356
:1011A800F582758300120800FFE52F540704FEEF4F
:1011B800A806088002C333D8FC30D70575300380F1
:1011C8002F753001802AAB31AA32A93375F002E5B8
:1011D8002FA4F58285F083120800F527E52F75F016
:1011E80002A429F9EA35F0FA900001120800F53056
:0A11F800052FD20A22C204438F1013
:0112020022C9
:100C7D00900000E014F0701F740AF0D20590002966
:100C8D00E014F07012740AF0D20890006DE014F0C8
:100C9D007005740AF0D20190002AA3E0FAA3E0F9DE
:100CAD001209A890002DA3E0FAA3E0F91209A8906B
:100CBD000039A3E0FAA3E0F91209A8900045A3E0DA
:100CCD00FAA3E0F91209A8900054A3E0FAA3E0F901
:100CDD001209A890005DA3E0FAA3E0F91209A8900B
:100CED00004BA3E0FAA3E0F91209A8EF600C900005
:100CFD001DA3E0FAA3E0F91209A890004EA3E0FAB3
:100D0D00A3E0F91209A8EF600E900020A3E0FAA36A
:100D1D00E0F91209A8D20BE52CD394004016D52C7E
:100D2D003030090C900023A3E0FAA3E0F91209A8D2
:100D3D00D20C801D900051A3E0FAA3E0F91209A88E
:100D4D00EF600E900023A3E0FAA3E0F91209A8D2F8
:0D0D5D000C900005A3E0FAA3E0F90209A83C
:100FCD0090003FA3E0FAA3E0F91209A8900042A314
:100FDD00E0FAA3E0F91209A8900033A3E0FAA3E028
:100FED00F91209A8900008A3E0FAA3E0F91209A8E4
:100FFD00900030A3E0FAA3E0F91209A8EF600C907D
:10100D000011A3E0FAA3E0F91209A8900036A3E0BD
:10101D00FAA3E0F91209A8EF600C900017A3E0FA0B
:10102D00A3E0F91209A8900048A3E0FAA3E0F91291
:10103D0009A8EF600C90001AA3E0FAA3E0F91209D9
:10104D00A830060EC206900026A3E0FAA3E0F9121E
:03105D0009A822BD
:10167F0090000BA3E0FAA3E0F91209A890003CA395
:10168F00E0FAA3E0F91209A8EF600C900014A3E0B0
:10169F00FAA3E0F91209A8900057A3E0FAA3E0F922
:0F16AF001209A890005AA3E0FAA3E0F90209A8D3
:10179D00AF2BAE2AAD29AC289000601209909000B5
:1017AD0064E52EF0E4F52BF52AF529F528F52E90B4
:0B17BD00000EA3E0FAA3E0F90209A867
:1016FD00300705C207121178300D05C20D120C7D91
:10170D00300505C205120FCD300805C20812167F2F
:10171D00300105C20112179DE52B2401F52BE4358F
:0E172D002AF52AE43529F529E43528F5282285
:101203008B348A358936EFB40C005070901216F87F
:1012130028287302123A02123F02124402124902B0
:10122300124E02125302125802125D02126202128D
:101233006702126C021271900005803590000880DD
:101243003090000B802B90000E802690001180219F
:10125300900017801C900014801790001A80129041
:10126300001D800D900020800890002380039000D3
:0D12730026E534F0A3E535F0A3E536F022C2
:07192E007B017A00796022C1
:1018B40053B1DF43B220C2B5C20A8F26438F102230
:030053000212F89E
:1012F800C0E0C083C082C0D075D000C000C001C0AB
:0313080002C0031D
:10130B00200313D203754108752D00754000E526A7
:10131B00C313F524803AE525C394014031E54025FC
:10132B00E0F540E525C3940340020540D54121E596
:10133B002DC39542501A754108AB43AA44A9458564
:10134B002D82758300E54012082D052D8002C20306
:03135B00752500F5
:10135E00D003D002D001D000D0D0D082D083D0E044
:01136E00324C
:09191E008B438A4489458D422265
:03194D00AF2D2299
:10176C002003047F0180027F00200A047E01800296
:10177C007E00EE5F60188B318A328933EDC313F52E
:10178C0023C202E4F52F538FEFD2047F02227F0392
:01179C00222A
:1016BE002003047F0180027F00200A047E01800245
:1016CE007E00EE5F6026538FEF752710753008D2BF
:1016DE000A438F018B318A328933ED75F008A404E9
:0F16EE00F523D202E4F52FD2047F02227F0322DC
:10186C002003047F0180027F00200A047E01800295
:0C187C007E00EE5F60037F00227F0122EF
:030000000210ECFF
:0C10EC00787FE4F6D8FD758148021133CE
:10080000BB010CE58229F582E5833AF583E02250AD
:1008100006E92582F8E622BBFE06E92582F8E222F7
:0D082000E58229F582E5833AF583E4932211
:10082D00F8BB010DE58229F582E5833AF583E8F001
:10083D00225006E92582C8F622BBFE05E92582C8AD
:02084D00F22295
:10084F00E88FF0A4CC8BF0A42CFCE98EF0A42CFC48
:10085F008AF0EDA42CFCEA8EF0A4CDA8F08BF0A4C6
:10086F002DCC3825F0FDE98FF0A42CCD35F0FCEB25
:10087F008EF0A4FEA9F0EB8FF0A4CFC5F02ECD39EA
:0F088F00FEE43CFCEAA42DCE35F0FDE43CFC2257
:10089E0075F008758200EF2FFFEE33FECD33CDCC11
:1008AE0033CCC58233C5829BED9AEC99E582984094
:1008BE000CF582EE9BFEED9AFDEC99FC0FD5F0D671
:1008CE00E4CEFBE4CDFAE4CCF9A88222B800C1B99B
:1008DE000059BA002DEC8BF084CFCECDFCE5F0CBD9
:1008EE00F97818EF2FFFEE33FEED33FDEC33FCEB12
:1008FE0033FB10D703994004EB99FB0FD8E5E4F9CD
:10090E00FA227818EF2FFFEE33FEED33FDEC33FCB9
:10091E00C933C910D7059BE99A4007EC9BFCE99AAD
:10092E00F90FD8E0E4C9FAE4CCFB2275F010EF2FF2
:10093E00FFEE33FEED33FDCC33CCC833C810D707F2
:10094E009BEC9AE899400AED9BFDEC9AFCE899F82D
:0E095E000FD5F0DAE4CDFBE4CCFAE4C8F922C0
:1015FB00C2D5E830E70FB2D5E4C39BFBE49AFAE41B
:10160B0099F9E498F8EC30E717B2D51216311208B5
:10161B00DAE4C39BFBE49AFAE499F9E498F88003C3
:10162B001208DA30D50DE4C39FFFE49EFEE49DFD66
:04163B00E49CFC220D
:10096C00E86010ECA2E713FCED13FDEE13FEEF13A1
:04097C00FFD8F0228E
:10098000E493FC740193FD740293FE740393FF22BD
:0C099000ECF0A3EDF0A3EEF0A3EFF022DA
:0C099C00A42582F582E5F03583F5832266
:0609A8008A838982E473DA
:1010F80002136FE493A3F8E493A34003F68001F28C
:1011080008DFF48029E493A3F85407240CC8C333F8
:10111800C4540F4420C8834004F456800146F6DFC7
:10112800E4800B0102040810204080900E53E47EF6
:10113800019360BCA3FF543F30E509541FFEE493BC
:10114800A360010ECF54C025E060A840B8E493A383
:10115800FAE493A3F8E493A3C8C582C8CAC583CAAE
:10116800F0A3C8C582C8CAC583CADFE9DEE780BE66
:010F240000CC
:00000001FF
