:1010FA0000A8C00000065B4F666D7D077F6F3F1E2C
:0C110A006B75BF86DBCFE6EDFD87FFEFC5
:1005CB0020342C07020C090A0D03050801060B0445
:1005DB000D09020A070C010B03080406050B010D9C
:1005EB0008040C0A070309060205060C040A0D0190
:1005FB0008090B0307020504240101010102220073
:01060B0000EE
:10022D00757300757401E4FF120EC48F757F011292
:10023D000EC48F767F02120EC48F77E57564016050
:10024D00030202D3752801C3E5749404E573648039
:10025D009480505CAF7474242FF8E66042C3E5239C
:10026D009434E522648094805017742C2523F8E68D
:10027D00FE74282FF8A6060523E523702905228094
:10028D0025756401756501756601756701756801F0
:10029D007B007A0079647D057C00121075800774EF
:1002AD00282574F8E4F60574E574709B0573809742
:1002BD007B007A0079287D04120F437D1E7C007F20
:1002CD00E07E15120B67E5766401600302035C7531
:1002DD002802C3E5749404E57364809480505AAF8A
:1002ED007474242FF8E66040C3E5239434E522644A
:1002FD008094805017742C2523F8E6FE74282FF86F
:10030D00A6060523E523702705228023E4F56475F1
:10031D00650A75660B75670C756801FB7A00796463
:10032D007D05FC121075800774282574F8E4F60518
:10033D0074E574709D057380997B007A0079287D32
:10034D0004120F437D1E7C007FE07E15120B67E5C6
:10035D0077B401167B007A0079287D04120F437D56
:0A036D001E7C007FE07E15120B6776
:010377002263
:100CCD00E4F573F574E56065247036E561652570AE
:100CDD0030E5626526702AE563B527257D647C00C5
:100CED007F207E1C120B678524648525658526660D
:100CFD00852767E4F568FB7A0079647D05FC1210A1
:100D0D0075C3E5749404E573648094805018AF74D2
:100D1D0074242FF8E6FE74602FF8A6060574E574AA
:060D2D0070DF057380DB9E
:010D3300229D
:100D34007F2B1200261211321210DD12109D7F60DB
:100D44007E097D007C00120C567D07E4FF121172AF
:100D5400E4F576F577F578F579F57AFBFD7F0212FF
:100D640010BD7FFF12004D7B007A0079247D0412B0
:100D7400118D7BFF7A02792D7F04120AEA7BFF7AB8
:100D84000C79CD7F0B120AEA121196120F8280FBA6
:030000000209D31F
:0C09D300787FE4F6D8FD75817F020A1AD7
:04104D00157F157F77
:1010510012117BA87FA60608A607A87FE6FE08E670
:0F106100FF4E600BEF24FFFFEE34FFFE121184F1
:05107000057F057F2251
:10109D0053B1EF43B210120036E4F5D975DA49D2E7
:1010AD00DE90003F74FFF0A37410F0A3744DF02296
:080B67008E788F798C7A8D7B6A
:100B6F0012117BEF4E7066AF7BAE7A121184C3E524
:100B7F0079940AE5789400404BE47B18FAF9F890E1
:100B8F0010FA1201FF120146C006C007AE78AF7906
:100B9F00AB07AA06E4F9F8D007D006120146AB0757
:100BAF00AA06AFF9EFFEADE97C00E42DFFEC3ECFD6
:100BBF002BCF3AAD07FCAF03AE0212000ED2D843D3
:0F0BCF00DA01800612003653DAFE7F02227F031E
:010BDE0022F4
:0C115B0012117BEF4E7002FF227F012278
:1007AF00E4F58090008EE0FFB40800505F9007C31F
:1007BF00F82828730207DB0207E10207E70207EDBB
:1007CF000207F30207FD020807020811C2A3C2A223
:1007DF008016C2A3C2A2801AC2A3C2A2801EC2A345
:1007EF00C2A28022C2A3D2A2C2A1C2A08020C2A351
:1007FF00D2A2C2A1D2A08016C2A3D2A2D2A1C2A05D
:10080F00800CC2A3D2A2D2A1D2A08002D2A3C3EFE6
:10081F0064809488502990008EE0FF3395E0FE7439
:10082F00852FF58274003EF583E0FF3395E0FE746B
:10083F00FE2FF58274103EF583E493F580801E90B1
:10084F00008EE0FFB408133395E0FE74852FF58218
:10085F0074003EF583E0F5808003E4F5809000841A
:10086F00E0FF90008EE004FEF0D3EF6480F8EE64BA
:10087F0080984014E0D36480948850047408F02268
:09088F00900083E090008EF0223D
:10113200E4F5937594FF5395F043960F90002A744B
:0B114200FFF0A37407F0A374AFF022CD
:09117200900083EFF0A3EDF022E0
:1010BD00900085EFF0A3EDF0A3EBF0A3E576F0A3A0
:1010CD00E577F0A3E578F0A3E579F0A3E57AF022D2
:06004D0090008DEFF0228F
:10060C00017E0049009094940094940094940041CD
:03061C00008F1E2E
:0204A800157FBE
:1004AA0020B206900090E014F020B306900093E08A
:1004BA0014F0209706900096E014F090008FE01454
:1004CA00F060030205C8741EF0A87FE4F6A87FE670
:1004DA00FFC36480948340030205C8EF3395E0FEAE
:1004EA0090009075F003EF12021BEE75F003A4253D
:1004FA0083F583E0C39480503990009175F003EF3F
:10050A0012021BEE75F003A42583F583E0D39480D1
:10051A00405AE6FF3395E0FE90009275F003EF1221
:10052A00021BEE75F003A42583F5837401F0F57EB2
:10053A00803AA87FE6FF3395E0FE90009175F003BC
:10054A00EF12021BEE75F003A42583F583E0C39432
:10055A0080501990009275F003EF12021BEE75F0AD
:10056A0003A42583F5837402F0757E01A87FE6FF54
:10057A00FD3395E0FC90009075F003ED12021BEC40
:10058A0075F003A42583F583E0FE90009175F003CE
:10059A00ED12021BEC75F003A42583F583EEF0EF50
:1005AA003395E0FE90009075F003EF12021BEE7592
:0E05BA00F003A42583F5837494F0060204D7A1
:0305C800057F228A
:02114D00157F0C
:09114F00A87FA67EE4F57EE6FF10
:03115800057F22EE
:1010DD0090003074FFF0A37411F0A3744DF09000E4
:0D10ED002D74FFF0A37404F0A374A8F0228A
:100EC400EF600764016003BF0233EFFD3395E0FC7C
:100ED40090009275F003ED12021BEC75F003A4254B
:100EE40083F583E0FE90009275F003ED12021BEC93
:0F0EF40075F003A42583F583E4F0AF06227F0396
:010F030022CB
:10061F004100000A4100290A41006D0A040E000042
:10062F0000000114004600670000FFFF8FFFC10D9F
:10063F00C105C108C101C10E60240005FF000AFFFA
:10064F00000AFF000AFF000AFF000AFF000AFF006E
:10065F000AFF000AFF000AFF000AFF000AFF000A54
:10066F006036002AFF000AFF000AFF001FFF000A82
:10067F00FF001FFF000AFF001FFF000AFF000AFF15
:10068F00000AFF001FFF001FFF001FFF001FFF00DA
:0A069F000AFF000AFF000AFF000A2C
:01000A0022D3
:03001F007F00223D
:100E3900438E805389F07BE07A28790178009010FD
:100E4900FA1201FF120E80EFF404F58A7BE07A288A
:100E5900790178009010FA1201FF120E80C3E49F05
:100E6900FFE49EFE74019DFDE49CFC78081201EBF1
:070E79008F8CD28CD2A9225C
:03000B00020DE7FC
:040DE700C0E0C0D0D8
:100DEB00D5080A75084C300D020514D20DA20372FA
:100DFB00045036150AE50A7030850C0AD207300A02
:100E0B0017E50D6007150D438F01801D538FFEC233
:100E1B00B5D51615C20A8011050BE50BD394064008
:090E2B0008C203E5136002D206BF
:050E3400D0D0D0E03237
:100D9400300E47C20E9010FA1201FF78101201EBC8
:100DA4008E7C8F7D900003E0FEA3E0FFE4FCFD7BDE
:100DB40019FAF9F81200BBC006C007AE7CAF7DABD0
:100DC40007AA06E4F9F8D007D006120E80780312B9
:100DD40001EB900065EEF0A3EFF0900065E0FEA358
:020DE400E0FF2E
:010DE60022EA
:09117B00900067E0FEA3E0FF22F2
:09118400900067EEF0A3EFF022E9
:10000E0090006BEEF0A3EFF0900069ECF0A3EDF032
:01001E0022BF
:03003600C2B4222F
:03003B0002089820
:10089800C0E0C083C082C0D075D000C004C005C00D
:0308A80006C00780
:1008AB0030DF04C2DF807D30DA04C2DA807630D9E3
:1008BB003DC2D9AFFBEFFEADEB7C00E42DFFEC3E70
:1008CB0020000E900001F0A3EFF075DB11D2008039
:1008DB0053FE900001E0FCA3E0FDC3EF9DFFEE9CF7
:1008EB00A3F0A3EFF075DB00C200D20E803630D838
:1008FB0033C2D8900067E07002A3E06022B2B490DC
:10090B000069E0FEA3E0F5EAEEF5FAA3E0FEA3E052
:10091B00FF90006AE02FF0900069E03EF08005C286
:04092B00B453DAFEE9
:10092F00D007D006D005D004D0D0D082D083D0E06D
:01093F003285
:06119600120E39D2AF2257
:100A5F003004047F0180027F00200A047E0180029F
:100A6F007E00EE5F6074E515C3950950683002365D
:100A7F00750D01E515131313541FAB17AA18A919F8
:100A8F00F582758300120056FFE515540704FEEF3B
:100A9F00A806088002C333D8FC30D705751603802B
:100AAF002F751601802AAB17AA18A91975F002E540
:100ABF0015A4F58285F083120056F50DE51575F036
:100ACF0002A429F9EA35F0FA900001120056F51642
:0A0ADF000515D20A22C204438F104D
:010AE90022EA
:1006C200900000E014F0701F740AF0D20590002927
:1006D200E014F07012740AF0D20890006DE014F089
:1006E2007005740AF0D20190002AA3E0FAA3E0F99F
:1006F20012022790002DA3E0FAA3E0F9120227903C
:100702000039A3E0FAA3E0F9120227900045A3E022
:10071200FAA3E0F9120227900054A3E0FAA3E0F949
:1007220012022790005DA3E0FAA3E0F912022790DB
:10073200004BA3E0FAA3E0F9120227EF600C90004D
:100742001DA3E0FAA3E0F912022790004EA3E0FAFB
:10075200A3E0F9120227EF600E900020A3E0FAA3B3
:10076200E0F9120227D20BE512D394004016D512FB
:100772003030090C900023A3E0FAA3E0F91202271B
:10078200D20C801D900051A3E0FAA3E0F9120227D7
:10079200EF600E900023A3E0FAA3E0F9120227D241
:0D07A2000C900005A3E0FAA3E0F902022785
:1009400090003FA3E0FAA3E0F9120227900042A32F
:10095000E0FAA3E0F9120227900033A3E0FAA3E043
:10096000F9120227900008A3E0FAA3E0F912022787
:10097000900030A3E0FAA3E0F9120227EF600C9098
:100980000011A3E0FAA3E0F9120227900036A3E0D9
:10099000FAA3E0F9120227EF600C900017A3E0FA27
:1009A000A3E0F9120227900048A3E0FAA3E0F912AD
:1009B0000227EF600C90001AA3E0FAA3E0F91202FC
:1009C0002730060EC206900026A3E0FAA3E0F91233
:0309D000022722D9
:100F040090000BA3E0FAA3E0F912022790003CA39F
:100F1400E0FAA3E0F9120227EF600C900014A3E0BA
:100F2400FAA3E0F9120227900057A3E0FAA3E0F92C
:0F0F340012022790005AA3E0FAA3E0F902022765
:10102200AF11AE10AD0FAC0E90006012020F900027
:1010320064E514F0E4F511F510F50FF50EF51490D2
:0B104200000EA3E0FAA3E0F902022771
:100F8200300705C207120A5F300D05C20D1206C2F4
:100F9200300505C205120940300805C208120F04C7
:100FA200300105C201121022E5112401F511E435C8
:0E0FB20010F510E4350FF50FE4350EF50E22A4
:100AEA008B738A748975EFB40C005070900AFDF804
:100AFA00282873020B21020B26020B2B020B300251
:100B0A000B35020B3A020B3F020B44020B49020B54
:100B1A004E020B53020B5890000580359000088056
:100B2A003090000B802B90000E80269000118021BF
:100B3A00900017801C900014801790001A80129061
:100B4A00001D800D900020800890002380039000F3
:0D0B5A0026E573F0A3E574F0A3E575F02225
:070003007B017A0079602205
:1000260053B1DF43B220C2B5C20A8F0C438F1022F0
:03005300020BDFBE
:100BDF00C0E0C083C082C0D075D000C000C001C0CB
:030BEF0002C0033E
:100BF200200313D203751B08751300751A00E50C48
:100C0200C313F50A803AE50BC394014031E51A2576
:100C1200E0F51AE50BC394034002051AD51B21E542
:100C220013C3951C501A751B08AB1DAA1EA91F855C
:100C32001382758300E51A12008305138002C20332
:030C4200750B002F
:100C4500D003D002D001D000D0D0D082D083D0E064
:010C5500326C
:09118D008B1D8A1E891F8D1C2296
:03119C00AF13226C
:100FC0002003047F0180027F00200A047E0180024A
:100FD0007E00EE5F60188B178A188919EDC313F530
:100FE00009C202E4F515538FEFD2047F02227F037A
:010FF00022DE
:100F43002003047F0180027F00200A047E018002C7
:100F53007E00EE5F6026538FEF750D10751608D275
:100F63000A438F018B178A188919ED75F008A404B9
:0F0F7300F509D202E4F515D2047F02227F032292
:101116002003047F0180027F00200A047E018002F2
:0C1126007E00EE5F60037F00227F01224C
:1006A90055006E000000000000000000000000007E
:0806B900000001000000000038
:030023000203785D
:10037800C0E0C0F0C083C082C0D075D000C000C04B
:1003880001C002C003C004C005C006C00730993BC5
:10039800C299900073E0FEA3E0FFC3900072E09F53
:1003A800900071E09E501F90006EE0FBA3E0FAA35E
:1003B800E0F9A3E475F0011200A585F082F5831237
:1003C8000056F5998005900075E4F0209803020422
:1003D8008DC298300B09C20B90007BE4F0A3F0901B
:1003E8000079E0FEA3E0FFA3E0FCA3E0FDC39FECDF
:1003F8009E5077900076E0FBA3E0FAA3E0F98D82A7
:100408008C83E599120083900081E0FEA3E0FFC38E
:10041800ED9FEC9E5046900079E0FCA3E0FDEF9D37
:10042800EE9C503890007EE0FBA3E0FAA3E0F99040
:10043800007BE0FEA3E0FFF5828E83120056FD905C
:100448000076E0FBA3E0FAA3E0F98F828E83120026
:10045800566D600890007B74FFF0A3F090007CE07C
:1004680004F0700690007BE004F0900079E0FEA3B1
:10047800E0FFC390007CE09F90007BE09E400690E8
:10048800007D7401F0D007D006D005D004D003D089
:1004980002D001D000D0D0D082D083D0F0D0E032CA
:02003E00157F2C
:0A00400090007DE0A87FF6FFE4F0D9
:03004A00057F220D
:100C56008F768E758D748C73759850438E40538E37
:100C6600FE53890FE47B04FAF9F89010FA1201FF9B
:100C7600120146AB76AA75A974A873120146EFF461
:100C860004F58BE47B04FAF9F89010FA1201FF12CE
:100C96000146AB76AA75A974A873120146C3E49FF0
:100CA600FFE49EFE74019DFDE49CFC78081201D8C9
:100CB6008F8DC2ABD28ED2AC90004E74FFF0A3746F
:070CC60000F0A3743EF022D0
:100FF100900076EBF0A3EAF0A3E9F0A3ECF0A3ED07
:10100100F0900081E571F0A3E572F090007EE56E4D
:10101100F0A3E56FF0A3E570F0D20BE490007DF052
:0110210022AC
:10107500900075E0701F90006EEBF0A3EAF0A3E915
:10108500F0E4A3F0A3F0A3ECF0A3EDF0A37401F05A
:08109500D2997F02227F0322A1
:0B116700900075E07002FF227F012263
:1009DF00020D34E493A3F8E493A34003F68001F2ED
:1009EF0008DFF48029E493A3F85407240CC8C33319
:1009FF00C4540F4420C8834004F456800146F6DFE8
:100A0F00E4800B01020408102040809005CBE47EA7
:100A1F00019360BCA3FF543F30E509541FFEE493DC
:100A2F00A360010ECF54C025E060A840B8E493A3A3
:100A3F00FAE493A3F8E493A3C8C582C8CAC583CACE
:100A4F00F0A3C8C582C8CAC583CADFE9DEE780BE86
:0106C1000038
:10005600BB010CE58229F582E5833AF583E022505F
:1000660006E92582F8E622BBFE06E92582F8E222A9
:0D007600E58229F582E5833AF583E49322C3
:10008300F8BB010DE58229F582E5833AF583E8F0B3
:10009300225006E92582C8F622BBFE05E92582C85F
:0200A300F22247
:1000A500A3F8E0C5F025F0F0E5821582700215830E
:0600B500E0C838F0E8226B
:1000BB00E88FF0A4CC8BF0A42CFCE98EF0A42CFCE4
:1000CB008AF0EDA42CFCEA8EF0A4CDA8F08BF0A462
:1000DB002DCC3825F0FDE98FF0A42CCD35F0FCEBC1
:1000EB008EF0A4FEA9F0EB8FF0A4CFC5F02ECD3986
:0F00FB00FEE43CFCEAA42DCE35F0FDE43CFC22F3
:10010A0075F008758200EF2FFFEE33FECD33CDCCAC
:10011A0033CCC58233C5829BED9AEC99E58298402F
:10012A000CF582EE9BFEED9AFDEC99FC0FD5F0D60C
:10013A00E4CEFBE4CDFAE4CCF9A88222B800C1B936
:10014A000059BA002DEC8BF084CFCECDFCE5F0CB74
:10015A00F97818EF2FFFEE33FEED33FDEC33FCEBAD
:10016A0033FB10D703994004EB99FB0FD8E5E4F968
:10017A00FA227818EF2FFFEE33FEED33FDEC33FC55
:10018A00C933C910D7059BE99A4007EC9BFCE99A49
:10019A00F90FD8E0E4C9FAE4CCFB2275F010EF2F8E
:1001AA00FFEE33FEED33FDCC33CCC833C810D7078E
:1001BA009BEC9AE899400AED9BFDEC9AFCE899F8C9
:0E01CA000FD5F0DAE4CDFBE4CCFAE4C8F9225C
:100E8000C2D5E830E70FB2D5E4C39BFBE49AFAE49D
:100E900099F9E498F8EC30E717B2D5120EB61201C2
:100EA00046E4C39BFBE49AFAE499F9E498F88003DA
:100EB00012014630D50DE4C39FFFE49EFEE49DFD84
:040EC000E49CFC2290
:1001D800E8600FECC313FCED13FDEE13FEEF13FF05
:0301E800D8F12229
:1001EB00E86010ECA2E713FCED13FDEE13FEEF132A
:0401FB00FFD8F02217
:1001FF00E493FC740193FD740293FE740393FF2246
:0C020F00ECF0A3EDF0A3EEF0A3EFF02262
:0C021B00A42582F582E5F03583F58322EE
:060227008A838982E47362
:00000001FF
